:020000040800F2
:10000000005000205D060008A9060008A9060008A7
:10001000A9060008A9060008A9060008A906000804
:10002000A9060008A9060008A9060008A9060008F4
:10003000A9060008A9060008A9060008A9060008E4
:10004000A9060008A9060008A9060008A9060008D4
:10005000A9060008A9060008A9060008A9060008C4
:10006000A9060008A9060008A9060008510400080E
:10007000A9060008A9060008A9060008A9060008A4
:10008000A9060008A9060008A9060008A906000894
:10009000A9060008A9060008A9060008A906000884
:1000A000A9060008A9060008A9060008A906000874
:1000B000A9060008A9060008A9060008A906000864
:1000C000A9060008A9060008A9060008A906000854
:1000D000A9060008A9060008A9060008A906000844
:1000E000A9060008A9060008A9060008A906000834
:1000F000A9060008A9060008A9060008A906000824
:10010000A906000851020008A9060008A90600086F
:10011000A9060008A9060008A9060008A906000803
:10012000A9060008A9060008A9060008A9060008F3
:10013000A9060008A9060008A9060008A9060008E3
:10014000A9060008A9060008A9060008A9060008D3
:10015000A9060008A9060008A9060008A9060008C3
:1001600008B500F095F800F0CBF9002000F002FA95
:1001700000F01EFA082000F005F800F039F900F050
:10018000C3F8FEE700212F4A10B453682E4C23F425
:10019000404343F4004353609369092843F40273D6
:1001A00093612268294B22F00F0222605960996006
:1001B000DA6A22F47002DA624FF00702586332D82A
:1001C000196900EB400002FA00F021EA0001196110
:1001D0001A691043186142F210731C4A916821F4A5
:1001E00060219160916841F480119160013BFDD1E3
:1001F0004FF47A7315498A6842F001028A60013B24
:10020000FDD1124A936843F008039360936819077D
:10021000FCD493680D4943F0040393608B685B073B
:10022000FCD410BC70470A38C0B2D96800EB40005B
:1002300002FA00F021EA0001D960DA681043D860C0
:10024000C9E700BF00100240000C0140002401403B
:100250000C4A13689B0614D510B413680A4913F0AE
:10026000200318BF53680A780878084C02F101028D
:1002700018BFDBB202F01F02C0B223540A7010BCD8
:100280007047704700380140280000200800002017
:10029000F0B44FF0E0202024002741F64C5642F203
:1002A0002C054FF4806C124A936943F4804343F069
:1002B000040393610F4BA2F55842596821F0F001F5
:1002C0005960596841F0B0015960596821F4706172
:1002D0005960596841F400615960C3F810C0D76093
:1002E0009660D560C0F88442C0F80441F0BC704705
:1002F0000010024000080140024A13681B06FCD5AA
:100300005060704700380140F0B4002241F61F47AA
:1003100063263225682401200F498B6943F400636A
:100320008B610E4B1A60DA601A625A649F62DE6259
:100330001A635D639C615A6258611A611A6AF0BC63
:1003400002431A625A6C42F400425A641A6842F03C
:1003500081021A60704700BF00100240002C01406B
:100360002DE9F04100F13203461C9E428CBF01266C
:10037000322605461C4F1D4C82B00644002237F839
:1003800015309BB290469C46A4FB0301C90801EBC3
:100390008100A3EB4000083230306A44C0B202F85A
:1003A000080CBCF1090F08F101028BB2D2B2E9D8F6
:1003B00012B90DE013F8080C08F1FF385FFA88F85D
:1003C000FFF79AFF08F10803B8F1FF0F6B44F1D172
:1003D0000A20FFF791FF01350D20FFF78DFFB54291
:1003E000CCD102B0BDE8F0812C000020CDCCCCCC2B
:1003F000F0B401254FF400644FF0E020642740F290
:10040000A6560F490F4B4A692A434A619A68A1F5DB
:100410006C4122F001029A600B4A1A610B4A5A6140
:10042000DF609E605D60C0F88042C0F800418A686D
:1004300042F480728A609A682A439A60F0BC7047DE
:1004400000100240000002404C2401402C0000201B
:10045000274A38B51468610702D4A30724D438BDED
:10046000002104250B462348556030F81320013342
:1004700092B2322B1144F8D164221F481F4BA0FBCB
:100480000110000902FB00F000F2FF70A3FB002343
:10049000C01A03EB5000C0F3C72000F06BF8002037
:1004A000FFF75EFFA307DAD5022400213223104AAA
:1004B0001048546030F81320013392B2642B114479
:1004C000F8D10D4A0D48A2FB0121090901FB03F3F4
:1004D00003F2FF73A0FB03201B1A00EB5300C0F3D1
:1004E000C72000F047F8BDE838403220FFF738BF9A
:1004F000000002402C0000201F85EB51010110007C
:100500001A4AF0B490694FF0804340F004009061C3
:100510000120472740F2E736002515490C6824F0F2
:100520000F040C600C6844F00B040C60D1690143AB
:10053000D1619F62DE625D639A69F0BC22F0700255
:100540009A619A6942F060029A619A6942F00802DF
:100550009A611A6A02431A621A6842F080021A60AB
:1005600058611A6802431A60704700BF00100240C9
:1005700000080140642828BF64200A490A4B08701B
:100580001A7802F0FF030AB10B78DBB24FF0804219
:10059000D06A064900FB0333A1FB03135B095363D5
:1005A000704700BF00000020F40000201F85EB51C1
:1005B00001220A4B1A701A7802F0FF0312B1084B9D
:1005C0001B78DBB24FF08042D06A064900FB033350
:1005D000A1FB03135B095363704700BFF4000020C5
:1005E000000000201F85EB511221164B164A19609E
:1005F000136843F48033136013689903FCD5506883
:10060000124B114903405360536843F4E81343F419
:1006100080635360136843F0807313600B689B0121
:10062000FCD54B68084A23F0030343F002034B60F8
:10063000536803F00C03082BFAD1054B054A1A60E6
:10064000704700BF00200240001002400CC0C0FFF5
:100650000400002000A24A04704700BF0D480E4964
:100660000E4A914200D304E050F8043B41F8043BA9
:10067000F7E70B490B4A0023914200D302E041F80F
:10068000043BF9E7FFF7B0FFFFF7E6FFFFF768FD70
:10069000FEE70000AC060008000000200800002073
:0C06A00008000020F8000020FEE7000029
:0806AC006400000000A24A04F2
:040000050800065D8C
:00000001FF
