:020000040800F2
:100000000050002061080008AD080008AD08000895
:10001000AD080008AD080008AD080008AD080008EC
:10002000AD080008AD080008AD080008AD080008DC
:10003000AD080008AD080008AD080008AD080008CC
:10004000AD080008AD080008AD080008AD080008BC
:10005000AD080008AD080008AD080008AD080008AC
:10006000AD080008AD080008AD080008AD0800089C
:10007000AD080008AD080008AD080008AD0800088C
:10008000AD080008AD080008AD080008AD0800087C
:10009000AD080008AD080008AD080008AD0800086C
:1000A000AD080008AD080008AD080008AD0800085C
:1000B000AD080008AD080008AD080008AD0800084C
:1000C000AD080008AD080008AD080008AD0800083C
:1000D000AD080008E9020008AD080008AD080008F6
:1000E000AD080008AD080008AD080008AD0800081C
:1000F000AD080008AD080008AD080008AD0800080C
:10010000AD080008AD080008AD080008AD080008FB
:10011000AD080008AD080008AD080008AD080008EB
:10012000AD080008AD080008AD080008AD080008DB
:1001300008B500F00BF800F06BFA034800F09CFAE9
:1001400000F0A8FAFCE700BFB00800081A4AF0B4B3
:1001500090694FF0804340F00400906101204727F0
:1001600040F2E736002515490C6824F00F040C60B6
:100170000C6844F00B040C60D1690143D1619F62AB
:10018000DE625D639A69F0BC22F070029A619A693E
:1001900042F060029A619A6942F008029A611A6A12
:1001A00002431A621A6842F080021A6058611A68A3
:1001B00002431A60704700BF00100240000801406F
:1001C000642828BF64200A490A4B08701A7802F094
:1001D000FF030AB10B78DBB24FF08042D06A0649C8
:1001E00000FB0333A1FB03135B095363704700BF9C
:1001F00000000020080000201F85EB51014B1878FB
:10020000704700BF0000002001220A4B1A701A78C4
:1002100002F0FF0312B1084B1B78DBB24FF08042B3
:10022000D06A064900FB0333A1FB03135B09536348
:10023000704700BF08000020000000201F85EB5120
:1002400000220A4B1A701A7802F0FF0312B1084B11
:100250001B78DBB24FF08042D06A064900FB0333C3
:10026000A1FB03135B095363704700BF0800002024
:10027000000000201F85EB51014B1878704700BF2C
:1002800008000020632827D9154A13681906FCD5F1
:10029000312353601349124AA1FB00C3DB08A1FBC1
:1002A00003C1C90801EB8101A3EB41013031C9B29F
:1002B00013681B06FCD551600A4B094AA3FB0013C7
:1002C000DB0803EB8303A0EB43003030C0B21368BC
:1002D0001B06FCD5506070470928EDD9DAE700BF4E
:1002E00000380140CDCCCCCCF8B5AD4B1A689206A5
:1002F00017D55B68DBB2212B14D00D2B38D00A2B1D
:1003000036D0082B56D07F2B54D0A64C2278002A0A
:1003100057D1A5490A781E2A53D8A44C501CA3547F
:100320000870F8BDA04D9F4C2F7817B12178002997
:100330004AD09F489F4A03781278013303F007039D
:10034000934211D00227002602789B4902EB420219
:100350008F54027802EB42020A445670027802EB94
:10036000420211448E700370002323702B70F8BD7D
:100370008D4D8C4C2A7823781343F5D08C498D4AC7
:100380000B781278013303F007039342ECD0022775
:1003900000260A78884802EB420287540A7802EB6A
:1003A0004202024456700A7802EB42021044867000
:1003B0000B70D9E77C4A1378002BB2D0013B137045
:1003C000F8BD01232370F8BD784890F800C0C155EE
:1003D000BCF1000F00F0F8800A4666464F23DFF8B4
:1003E000DCE10132B342D2B278D1865C002E79D002
:1003F0001EF80230002BF4D166464F22DFF8C0E130
:100400000133B242DBB207D1C65C002E00F095800A
:100410001EF80320002AF3D163465322694E0131AE
:100420009A42C9B206D1435C002B00F09080725C06
:10043000002AF4D1052F40F2C780BCF1500F40F0E4
:10044000C3804378572B40F0BF8083784D2B40F01A
:10045000BB80C3783A2B40F0B780013FC35D252BAA
:1004600040F0B280042200231146415C03EB830379
:1004700001EB430330390132303B09299BB2D2B240
:1004800000F2A280642B00F29F8097421146ECD8C4
:10049000D8B2FFF795FEFFF7B1FE0646FFF7ECFE78
:1004A000434A444913780978013303F007038B4228
:1004B0003FF45AAF4FF0000C11783F4F01EB410170
:1004C00007F801C0117801EB410139444E701178F1
:1004D00001EB41010F44B870137045E766460023F5
:1004E0004F228BE7354B9B5C7BBBFFF78DFEFFF705
:1004F00085FE0746FFF7C0FEDFF8B4C02D4A9CF822
:1005000000301278013303F0070393423FF42CAF1D
:100510009CF80020284902EB42028E549CF80020EF
:1005200002EB42020A4457709CF8002002EB4202A0
:10053000114488708CF8003016E7214AD35C002BF8
:100540007FF46AAFFFF77CFED1E7334654E71D4BDB
:100550005B5C002B7FF46EAFFFF750FE144F064636
:10056000FFF78AFE3B78134A0133127803F0070342
:1005700093423FF4F9AE4FF0010C3A780E4902EB8A
:10058000420201F802C03A7802EB42020A44567075
:100590003A7802EB4202114488703B70E4E600BFF7
:1005A00000380140490000204800002028000020B9
:1005B00009000020240000200C0000202C09000865
:1005C00028090008300900080E4A0F4913780978F5
:1005D000013303F007038B423FF4C6AE0227002627
:1005E00011780A4801EB41014754117801EB4101B0
:1005F00001444E70117801EB41010844867013707C
:10060000B2E600BF09000020240000200C000020FA
:10061000F0B44FF0E0202024002741F64C5642F27F
:100620002C054FF4806C124A936943F4804343F0E5
:10063000040393610F4BA2F55842596821F0F00171
:100640005960596841F0B0015960596821F47061EE
:100650005960596841F400615960C3F810C0D7600F
:100660009660D560C0F88442C0F80441F0BC704781
:100670000010024000080140017841B1044A1368AB
:100680001B06FCD5516010F8011F0029F7D17047F7
:10069000003801402DE9F843DFF828814A4D98F8E9
:1006A00000202B789A4250D0DFF82091484C494FD7
:1006B000494E98F8003003EB430319F8032098F8EB
:1006C0000030022A03EB43034B44587898F800307B
:1006D000D1B203EB43034B4493F802C098F80030C7
:1006E000C0B203F1010303F007035FFA8CFC88F842
:1006F000003056D001292AD04F22384923681B06E2
:10070000FCD5626011F8012F002AF7D1BCF1000F6F
:1007100014BF394631464F2223681B06FCD5626060
:1007200011F8012F002AF7D1FFF7ACFD25222C4943
:1007300023681B06FCD5626011F8012F002AF7D14F
:1007400098F800202B789A42B3D1BDE8F883532261
:10075000244923681B06FCD5626011F8012F002A8A
:10076000F7D1BCF1000F14BF394631464F22236840
:100770001B06FCD5626011F8012F002AF7D1FFF7A4
:1007800081FD2522164923681806FCD5626011F800
:10079000012F002AF7D198F800202B789A4288D1AF
:1007A000D3E74522104923681806FCD5626011F88A
:1007B000012F002AF7D198F800202B789A427FF475
:1007C00078AFC2E724000020090000200C000020C0
:1007D00000380140E0080008EC080008180900088B
:1007E000140900081C090008F80800081221164B1B
:1007F000164A1960136843F4803313601368990331
:10080000FCD55068124B114903405360536843F4C0
:10081000E81343F480635360136843F080731360FC
:100820000B689B01FCD54B68084A23F0030343F097
:1008300002034B60536803F00C03082BFAD1054BFD
:10084000054A1A60704700BF0020024000100240B5
:100850000CC0C0FF0400002000A24A04704700BF83
:100860000D480E490E4A914200D304E050F8043B73
:1008700041F8043BF7E70B490B4A0023914200D3B0
:1008800002E041F8043BF9E7FFF7B0FFFFF7E6FFAE
:10089000FFF74EFCFEE700003809000800000020CA
:1008A00008000020080000204C000020FEE70000A7
:1008B000436F6D6D616E64733A204F4E212C204F53
:1008C0004646212C2050574D3A3C302E2E313030A8
:1008D0003E25212C20537461747573210D0A00008C
:1008E0004F4E2C2050574D3A000000004F46462CEA
:1008F0002050574D3A0000004552524F523A20695D
:100900006E76616C696420636F6D6D616E640D0A53
:1009100000000000250D0A004F4B2C205374617419
:1009200075733A20000000004F4646004F4E00000D
:0809300053746174757300003B
:080938006400000000A24A0463
:040000050800086186
:00000001FF
